:100000000C9435000C945D000C945D000C945D0024
:100010000C945D000C945D000C945D000C945D00EC
:100020000C945D000C945D000C945D000C945D00DC
:100030000C945D000C945D000C945D000C945D00CC
:100040000C943F020C945D000C94A5030C94E803FF
:100050000C945D000C945D000C945D000C945D00AC
:100060000C945D000C945D00A40411241FBECFEF1E
:10007000D8E0DEBFCDBF11E0A0E0B1E0E4E2F5E101
:1000800002C005900D92A837B107D9F712E0A8E792
:10009000B1E001C01D92AB35B107E1F710E0CAE64F
:1000A000D0E004C02297FE010E947D0AC836D10725
:1000B000C9F70E94FA040C9499090C94000040E8D6
:1000C00055E260E070E08DEA91E00C9423042F92F9
:1000D0003F924F925F926F927F928F929F92AF92D8
:1000E000BF92CF92DF92EF92FF920F931F93CF9325
:1000F000DF93CDB7DEB7EC970FB6F894DEBF0FBE37
:10010000CDBF8DEA91E00E940D031816190644F444
:100110008DEA91E00E943A039093790180937801EF
:100120008091780190917901019709F0E0C00AE788
:1001300011E05BE5A52E51E0B52ED801CD90DD9004
:10014000ED90FC90C114D104E104F10409F453C111
:10015000F50180810E942202AA2797FDA095BA2F5F
:100160008C159D05AE05BF050CF445C10C5F1F4FF6
:10017000F2E0AF0EB11C21E002391207F1F6409116
:100180008E0150918F0160919001709191012AE050
:10019000CE0101960E94100740918A0150918B0177
:1001A00060918C0170918D012AE0CE0108960E9429
:1001B00010074091860150918701609188017091EC
:1001C00089012AE0CE010F960E941007409182011A
:1001D0005091830160918401709185012AE0CE01E4
:1001E00046960E94100740917E0150917F016091D8
:1001F0008001709181012AE0CE014D960E94100786
:1002000040917A0150917B0160917C0170917D0158
:100210002AE0CE018B960E94100763E171E0CE01C7
:1002200084960E94C006BE01655D7F4FCE01849614
:100230000E946A076FE171E00E947D07BE01635E64
:100240007F4F0E946A076BE271E00E947D07BE014A
:100250006A5E7F4F0E946A0767E371E00E947D0734
:10026000BE01615F7F4F0E946A0763E471E00E94F4
:100270007D07BE01685F7F4F0E946A076FE471E0EF
:100280000E947D07BE016F5F7F4F0E946A07BC011D
:10029000CE01C2960E94EE06CE0184960E945206BE
:1002A000CE018B960E945206CE014D960E945206B8
:1002B000CE0146960E945206CE010F960E9452062B
:1002C000CE0108960E945206CE0101960E94520667
:1002D000BE016E5C7F4F8DEA91E00E949505109201
:1002E000790110927801CE01C2960E945206809147
:1002F000780190917901029709F08BC08BE5882EE7
:1003000081E0982E98E9A92E91E0B92E2AE7C22E15
:1003100021E0D22E36E0232E31E0332E02E911E027
:10032000E12CF12C44E6442E512C612C712CD4018B
:100330008C91B2E08B0E911C0E942202F5019183F8
:100340008083F101A191B1911F019C0140E050E037
:1003500029AF3AAF4BAF5CAFF601208131814281CA
:1003600053810E94F009A30192010E941A0A89ADEB
:100370009AADABADBCAD82179307A407B5079CF04F
:10038000D8018C9181110FC0E1E0EC934AE050E07C
:10039000B7018DEA91E00E944A0662E070E080E0D9
:1003A00090E00E94AC02D5018D919C91A0E0B0E05C
:1003B000F6014081518162817381841B950BA60BEC
:1003C000B70B0296A11DB11D0597A105B10510F44B
:1003D000D8011C92BFEFEB1AFB0AE2E0AE0EB11C93
:1003E000F4E0CF0ED11C0F5F1F4F26E0E216F104A0
:1003F00009F09DCF0EC0D5018C910E942202AA2740
:1004000097FDA095BA2FF80180839183A283B383CF
:10041000ADCEEC960FB6F894DEBF0FBECDBFDF9128
:10042000CF911F910F91FF90EF90DF90CF90BF90F1
:10043000AF909F908F907F906F905F904F903F9084
:100440002F9008958E3008F08E5087702091120101
:1004500090E4299F90011124822B80937C0080914D
:100460007A00806480937A0080917A0086FDFCCFC8
:10047000809178002091790090E0922B08951F924E
:100480000F920FB60F9211242F933F938F939F9348
:10049000AF93BF938091A5019091A601A091A70170
:1004A000B091A8013091A40123E0230F2D3720F44F
:1004B0000196A11DB11D05C026E8230F0296A11DBE
:1004C000B11D2093A4018093A5019093A601A09350
:1004D000A701B093A8018091A9019091AA01A091D0
:1004E000AB01B091AC010196A11DB11D8093A90192
:1004F0009093AA01A093AB01B093AC01BF91AF91CF
:100500009F918F913F912F910F900FBE0F901F9051
:1005100018953FB7F8948091A9019091AA01A091F4
:10052000AB01B091AC0126B5A89B05C02F3F19F0D7
:100530000196A11DB11D3FBF6627782F892F9A2FE5
:10054000620F711D811D911D42E0660F771F881F8C
:10055000991F4A95D1F70895CF92DF92EF92FF92BB
:10056000CF93DF936B017C010E948902EB01C114E0
:10057000D104E104F10479F00E9489026C1B7D0B27
:10058000683E7340A0F381E0C81AD108E108F10881
:10059000C851DC4FECCFDF91CF91FF90EF90DF900F
:1005A000CF900895789484B5826084BD84B58160CD
:1005B00084BD85B5826085BD85B5816085BDEEE66B
:1005C000F0E0808181608083E1E8F0E0108280814A
:1005D00082608083808181608083E0E8F0E08081B8
:1005E00081608083E1EBF0E0808184608083E0EBD8
:1005F000F0E0808181608083EAE7F0E080818460C0
:10060000808380818260808380818160808380811B
:10061000806880831092C1000895FC01248535858F
:10062000F901E05CFF4F80819181F901EE5BFF4FA2
:1006300020813181821B930B8F7399270895FC01D0
:1006400084859585FC01E05CFF4F40815181FC0170
:10065000EE5BFF4F208131814217530741F001903B
:10066000F081E02DE80FF91F808190E008958FEF71
:100670009FEF0895FC0184859585FC01E05CFF4FA8
:1006800040815181FC01EE5BFF4F20813181421797
:10069000530779F0A081B181A80FB91F8C912081F7
:1006A00031812F5F3F4F2F7333273183208390E0B9
:1006B00008958FEF9FEF0895FC0181A1882329F011
:1006C000A489B5898C9186FFFBCF11A20895CF93A1
:1006D000DF93FC0126853785D901A05CBF4F8D9142
:1006E0009C91119701968F739927E901CE5BDF4F9B
:1006F0004881598184179507D9F30D90BC91A02D9D
:10070000A20FB31F6C93A685B785A05CBF4F11964F
:100710009C938E93A689B7892C9181E090E0078CF9
:1007200002C0880F991F0A94E2F7282B2C9381E0CE
:1007300081A30488F589E02D80818064808381E035
:1007400090E0DF91CF91089508951F920F920FB618
:100750000F9211242F933F934F938F939F93EF9377
:10076000FF938091C00082FD1CC04091C600809123
:1007700053029091540201968F739927209155024C
:10078000309156028217930771F0E0915302F09175
:100790005402ED5EFD4F40839093540280935302C8
:1007A00002C08091C600FF91EF919F918F914F9170
:1007B0003F912F910F900FBE0F901F9018958DEACB
:1007C00091E00E940D03892B11F00C94A40308956D
:1007D0001F920F920FB60F9211242F933F938F9376
:1007E0009F93EF93FF9320910F023091100280911D
:1007F0001102909112022817390731F48091C1003B
:100800008F7D8093C10014C0E0911102F09112021B
:10081000E153FE4F208180911102909112020196C6
:100820008F73992790931202809311022093C60030
:10083000FF91EF919F918F913F912F910F900FBE5C
:100840000F901F901895CF92DF92EF92FF92CF9367
:10085000DF93EC016A017B01411581EE58076105C8
:100860007105F9F0EC89FD8981E090E008A002C0F3
:10087000880F991F0A94E2F7808360E079E08DE3A6
:1008800090E0A70196010E94F80921503109410921
:1008900051095695479537952795211580E13807D9
:1008A00098F0EC89FD89108260E874E88EE190E0B0
:1008B000A70196010E94F809215031094109510907
:1008C0005695479537952795E889F9893083EA89C0
:1008D000FB89208319A2EE89FF89408181E090E0A5
:1008E0009C010C8C02C0220F331F0A94E2F7422BAA
:1008F0004083EE89FF8940819C010D8C02C0220F4C
:10090000331F0A94E2F7422B4083EE89FF8940812E
:100910009C010E8C02C0220F331F0A94E2F7422B77
:100920004083EE89FF8920810F8C02C0880F991FB8
:100930000A94E2F7809582238083DF91CF91FF9024
:10094000EF90DF90CF9008951092B0011092AF0118
:1009500088EE93E0A0E0B0E08093B1019093B20103
:10096000A093B301B093B4018BE691E09093AE01F4
:100970008093AD0183E192E09093BA018093B90135
:100980008FEC91E09093BC018093BB0185EC90E0EB
:100990009093BE018093BD0184EC90E09093C001E0
:1009A0008093BF0180EC90E09093C2018093C101DD
:1009B00081EC90E09093C4018093C30182EC90E0BD
:1009C0009093C6018093C50186EC90E09093C80196
:1009D0008093C70184E08093C90183E08093CA01BA
:1009E00087E08093CB0185E08093CC0181E0809308
:1009F000CD0108950E94D2020E945F00CFEDD3E0A6
:100A00000E9467002097E1F30E94DF03F9CFCF92A5
:100A1000DF92EF92FF920F931F93CF93DF936C01BE
:100A20007A01EB01E60EF71E00E010E0CE15DF05BF
:100A300061F06991D601ED91FC910190F081E02D7A
:100A4000C6010995080F191FF1CFC801DF91CF9199
:100A50001F910F91FF90EF90DF90CF900895611557
:100A6000710581F0DB010D900020E9F7AD014150E7
:100A70005109461B570BDC01ED91FC910280F3817B
:100A8000E02D099480E090E00895AF92BF92CF925C
:100A9000DF92EF92FF920F931F93CF93DF937C012E
:100AA0006B01C0E0D0E000E010E0D60114968D911B
:100AB0009C911597C817D90788F4D701ED91FC913F
:100AC000A080B180BE01C6010E949707682FC701B0
:100AD000F5010995080F191F2196E7CFC801DF918D
:100AE000CF911F910F91FF90EF90DF90CF90BF902B
:100AF000AF900895DC01ED91FC910190F081E02D23
:100B000009940F931F93CF93DF93EC016DE00E9444
:100B10007A058C016AE0CE010E947A05800F911F50
:100B2000DF91CF911F910F9108950F931F93CF9352
:100B3000DF93EC010E9445058C01CE010E948105E6
:100B4000800F911FDF91CF911F910F9108958F9288
:100B50009F92AF92BF92CF92DF92EF92FF920F934C
:100B60001F93CF93DF93CDB7DEB7A1970FB6F8945D
:100B7000DEBF0FBECDBF7C01C42EE52FCB01D22E30
:100B800019A221E02D1510F02AE0D22E8E010F5D62
:100B90001F4F8D2C912CA12CB12C6C2D7E2FA501DB
:100BA00094010E94F8098C2DD29E801911240150C5
:100BB00011098A3014F4805D01C0895CF8018083DA
:100BC000211531054105510521F0C22EE32FCA013F
:100BD000E4CFB801C7010E942F05A1960FB6F89483
:100BE000DEBF0FBECDBFDF91CF911F910F91FF9060
:100BF000EF90DF90CF90BF90AF909F908F9008952F
:100C0000CF92DF92EF92FF920F931F93CF93DF93D8
:100C1000EC016A017B012115310579F4E881F98144
:100C20000190F081E02D642FDF91CF911F910F9102
:100C3000FF90EF90DF90CF9009942A303105E9F4CE
:100C400077FF1AC06DE20E947A058C014427552770
:100C5000BA014C195D096E097F092AE0CE010E9494
:100C6000A705800F911FDF91CF911F910F91FF90EA
:100C7000EF90DF90CF9008952AE0B701A601CE0152
:100C8000DF91CF911F910F91FF90EF90DF90CF9068
:100C90000C94A7059A01AB01662757FD6095762F46
:100CA0000C940006FC01808191810C944008CF9344
:100CB000DF93EC0188819981009711F00E94400830
:100CC000198218821D821C821B821A82DF91CF91A9
:100CD00008950F931F93CF93DF93EC018B016F5F08
:100CE0007F4F888199810E94CF08009731F09983C6
:100CF00088831B830A8381E001C080E0DF91CF916C
:100D00001F910F910895CF93DF93EC018881998112
:100D1000892B29F08A819B818617970760F4CE0181
:100D20000E946906882341F08C819D81892B19F4EA
:100D3000E881F981108281E0DF91CF910895EF92EF
:100D4000FF920F931F93CF93DF93EC017B018A01F6
:100D5000BA010E948306811104C0CE010E94570689
:100D600007C01D830C83B701888199810E94A50962
:100D7000CE01DF91CF911F910F91FF90EF900895D9
:100D8000FC01118210821382128215821482168253
:100D90006115710559F0FB0101900020E9F7AF01E1
:100DA00041505109461B570B0C949F060895CF9351
:100DB000DF93EC01FB018617970761F06081718179
:100DC0006115710529F0448155810E949F0602C07A
:100DD0000E945706CE01DF91CF910895FC01118248
:100DE0001082138212821582148216820C94D70606
:100DF000CF93DF93EC016115710561F0FB01019068
:100E00000020E9F7AF0141505109461B570B0E94E2
:100E10009F0602C00E945706CE01DF91CF91089530
:100E20000F931F93CF93DF93CDB7DEB7A2970FB683
:100E3000F894DEBF0FBECDBF8C01CB01BA01F80123
:100E4000118210821382128215821482168230E07F
:100E5000AE014F5F5F4F0E94AC09BE016F5F7F4FD5
:100E6000C8010E94F806A2960FB6F894DEBF0FBE26
:100E7000CDBFDF91CF911F910F910895EF92FF9217
:100E80000F931F93CF93DF93EC017B010C811D81A6
:100E90006115710511F480E016C04115510591F0FE
:100EA000040F151FB8010E9483068823A1F328812F
:100EB00039818C819D81B701820F931F0E94A50902
:100EC0001D830C8381E0DF91CF911F910F91FF90E3
:100ED000EF900895CF93DF93EC01FB01448155819E
:100EE000608171810E943E07811103C0CE010E9482
:100EF0005706CE01DF91CF910895CF93DF93EC0198
:100F00006115710569F0FB0101900020E9F7AF015F
:100F100041505109461B570B0E943E07811103C0E7
:100F2000CE010E945706CE01DF91CF910895FC01BA
:100F3000248135816217730748F48081918100977D
:100F400029F0FC01E60FF71F8081089580E00895E5
:100F5000CF93DF938230910510F482E090E0E0912E
:100F60005902F0915A0220E030E0A0E0B0E0309762
:100F700039F14081518148175907B8F0481759078E
:100F800071F482819381109729F013969C938E932C
:100F900012972CC090935A028093590227C02115B2
:100FA000310531F04217530718F0A901DB0101C0E8
:100FB000EF019A01BD01DF010280F381E02DD7CF5F
:100FC00021153105F9F0281B390B2430310580F447
:100FD0008A819B816115710521F0FB0193838283D6
:100FE00004C090935A0280935902FE01329644C085
:100FF000FE01E20FF31F819391932250310939834F
:1010000028833AC02091570230915802232B41F493
:10101000209102013091030130935802209357022E
:1010200020910001309101012115310541F42DB7C6
:101030003EB74091040150910501241B350BE0910E
:101040005702F0915802E217F307A0F42E1B3F0B52
:101050002817390778F0AC014E5F5F4F241735072A
:1010600048F04E0F5F1F50935802409357028193F0
:10107000919302C0E0E0F0E0CF01DF91CF910895BD
:10108000CF93DF93009709F487C0FC013297138256
:101090001282C0915902D0915A02209781F4208186
:1010A0003181280F391F8091570290915802821781
:1010B000930779F5F0935802E09357026DC0DE0173
:1010C00020E030E0AE17BF0750F412964D915C91CE
:1010D00013979D014115510509F1DA01F3CFB3834F
:1010E000A28340815181840F951F8A179B0771F459
:1010F0008D919C911197840F951F02969183808307
:1011000012968D919C9113979383828321153105BB
:1011100029F4F0935A02E09359023EC0D901139684
:10112000FC93EE9312974D915D91A40FB51FEA17B2
:10113000FB0779F480819181840F951F0296D90174
:1011400011969C938E938281938113969C938E9398
:101150001297E0E0F0E08A819B81009719F0FE0190
:10116000EC01F9CFCE01029628813981820F931FBD
:1011700020915702309158022817390769F43097A7
:1011800029F410925A021092590202C0138212825C
:10119000D0935802C0935702DF91CF910895A0E0F9
:1011A000B0E0E5EDF8E00C943D0AEC01CB012097AE
:1011B00019F40E94A807B8C0FE01E60FF71F9E01B0
:1011C00022503109E217F30708F4ACC0D9010D91A0
:1011D0001C91119706171707B8F00530110508F490
:1011E0009FC0A801445051094617570708F498C0FA
:1011F00002501109061B170B019311936D937C93F9
:10120000CF010E9440088CC05B01A01AB10A4E01B8
:10121000800E911EA0915902B0915A02612C712C3E
:1012200060E070E0109709F449C0A815B905C9F548
:10123000ED90FC901197670142E0C40ED11CCA14D6
:10124000DB0478F147018A189B08640142E0C40E70
:10125000D11C1296BC9012971396AC91B5E0CB16A8
:10126000D10440F0B282A38391828082D9018D9310
:101270009C9309C00E5F1F4F0E0D1F1DF9011183B6
:101280000083EB2DFA2F6115710531F0DB01139608
:10129000FC93EE93129744C0F0935A02E0935902E4
:1012A0003FC06D917C9111976616770608F43B015B
:1012B000BD0112960D90BC91A02DB4CF6091570244
:1012C0007091580268157905E9F468167906D0F42A
:1012D00040910001509101014115510541F44DB774
:1012E0005EB76091040170910501461B570BE4172E
:1012F000F507C0F4F0935802E0935702F901918387
:1013000080830EC00E94A8077C01009759F0A801B5
:10131000BE010E949C09CE010E944008C70104C082
:10132000CE0102C080E090E0CDB7DEB7EEE00C94D5
:10133000590AF8940C94900AFB01DC0102C0019058
:101340000D9241505040D8F70895FB01DC01019007
:101350000D920020E1F70895FA01CF93FF93EF93E8
:10136000223044F1253234F5C22FE894CA3049F4D2
:1013700097FB3EF490958095709561957F4F8F4FC8
:101380009F4F2C2F332744275527FF93EF930E941D
:10139000F809EF91FF91605D6A330CF0695D61932C
:1013A000B901CA01605070408040904051F716F476
:1013B000CDE2C19310828F919F91CF910C94E0095F
:1013C000DC01FC01672F71917723E1F7329704C0AC
:1013D0007C916D9370836291AE17BF07C8F3089537
:1013E000B7FF0C94700A0E94700A821B930B089539
:1013F000A1E21A2EAA1BBB1BFD010DC0AA1FBB1F19
:10140000EE1FFF1FA217B307E407F50720F0A21B8A
:10141000B30BE40BF50B661F771F881F991F1A94F7
:1014200069F760957095809590959B01AC01BD0121
:10143000CF010895052E97FB1EF400940E94310AF7
:1014400057FD07D00E94F80907FC03D04EF40C9416
:10145000310A50954095309521953F4F4F4F5F4F42
:10146000089590958095709561957F4F8F4F9F4F10
:1014700008952F923F924F925F926F927F928F9238
:101480009F92AF92BF92CF92DF92EF92FF920F9313
:101490001F93CF93DF93CDB7DEB7CA1BDB0B0FB61D
:1014A000F894DEBF0FBECDBF09942A8839884888DA
:1014B0005F846E847D848C849B84AA84B984C88470
:1014C000DF80EE80FD800C811B81AA81B981CE0F67
:1014D000D11D0FB6F894DEBF0FBECDBFED0108954C
:1014E0000E94810AA59F900DB49F900DA49F800D2E
:1014F000911D11240895EE0FFF1F0590F491E02D2A
:101500000994A29FB001B39FC001A39F700D811DDC
:101510001124911DB29F700D811D1124911D0895FC
:04152000F894FFCF6D
:1015240000005B022000820082008200C800C80024
:10153400C800010A53656E736F7220303A20000AA6
:1015440053656E736F7220313A20000A53656E73CF
:101554006F7220323A20000A53656E736F72203323
:101564003A20000A53656E736F7220343A20000AE1
:1015740053656E736F7220353A20000E000F001011
:101584000011001200130000000000670307050D9E
:08159400033A031F035C03008E
:00000001FF
